{
  "contractName": "LipToken",
  "abi": [
    {
      "inputs": [
        {
          "internalType": "string",
          "name": "_name",
          "type": "string"
        },
        {
          "internalType": "string",
          "name": "_symbol",
          "type": "string"
        }
      ],
      "stateMutability": "nonpayable",
      "type": "constructor"
    },
    {
      "anonymous": false,
      "inputs": [
        {
          "indexed": true,
          "internalType": "address",
          "name": "owner",
          "type": "address"
        },
        {
          "indexed": true,
          "internalType": "address",
          "name": "approved",
          "type": "address"
        },
        {
          "indexed": true,
          "internalType": "uint256",
          "name": "tokenId",
          "type": "uint256"
        }
      ],
      "name": "Approval",
      "type": "event"
    },
    {
      "anonymous": false,
      "inputs": [
        {
          "indexed": true,
          "internalType": "address",
          "name": "owner",
          "type": "address"
        },
        {
          "indexed": true,
          "internalType": "address",
          "name": "operator",
          "type": "address"
        },
        {
          "indexed": false,
          "internalType": "bool",
          "name": "approved",
          "type": "bool"
        }
      ],
      "name": "ApprovalForAll",
      "type": "event"
    },
    {
      "anonymous": false,
      "inputs": [
        {
          "indexed": true,
          "internalType": "address",
          "name": "owner",
          "type": "address"
        },
        {
          "indexed": false,
          "internalType": "uint256",
          "name": "id",
          "type": "uint256"
        },
        {
          "indexed": false,
          "internalType": "uint256",
          "name": "dna",
          "type": "uint256"
        }
      ],
      "name": "NewLip",
      "type": "event"
    },
    {
      "anonymous": false,
      "inputs": [
        {
          "indexed": true,
          "internalType": "address",
          "name": "previousOwner",
          "type": "address"
        },
        {
          "indexed": true,
          "internalType": "address",
          "name": "newOwner",
          "type": "address"
        }
      ],
      "name": "OwnershipTransferred",
      "type": "event"
    },
    {
      "anonymous": false,
      "inputs": [
        {
          "indexed": true,
          "internalType": "address",
          "name": "from",
          "type": "address"
        },
        {
          "indexed": true,
          "internalType": "address",
          "name": "to",
          "type": "address"
        },
        {
          "indexed": true,
          "internalType": "uint256",
          "name": "tokenId",
          "type": "uint256"
        }
      ],
      "name": "Transfer",
      "type": "event"
    },
    {
      "inputs": [
        {
          "internalType": "address",
          "name": "to",
          "type": "address"
        },
        {
          "internalType": "uint256",
          "name": "tokenId",
          "type": "uint256"
        }
      ],
      "name": "approve",
      "outputs": [],
      "stateMutability": "nonpayable",
      "type": "function"
    },
    {
      "inputs": [
        {
          "internalType": "address",
          "name": "owner",
          "type": "address"
        }
      ],
      "name": "balanceOf",
      "outputs": [
        {
          "internalType": "uint256",
          "name": "",
          "type": "uint256"
        }
      ],
      "stateMutability": "view",
      "type": "function",
      "constant": true
    },
    {
      "inputs": [
        {
          "internalType": "uint256",
          "name": "tokenId",
          "type": "uint256"
        }
      ],
      "name": "getApproved",
      "outputs": [
        {
          "internalType": "address",
          "name": "",
          "type": "address"
        }
      ],
      "stateMutability": "view",
      "type": "function",
      "constant": true
    },
    {
      "inputs": [
        {
          "internalType": "address",
          "name": "owner",
          "type": "address"
        },
        {
          "internalType": "address",
          "name": "operator",
          "type": "address"
        }
      ],
      "name": "isApprovedForAll",
      "outputs": [
        {
          "internalType": "bool",
          "name": "",
          "type": "bool"
        }
      ],
      "stateMutability": "view",
      "type": "function",
      "constant": true
    },
    {
      "inputs": [
        {
          "internalType": "uint256",
          "name": "",
          "type": "uint256"
        }
      ],
      "name": "lips",
      "outputs": [
        {
          "internalType": "string",
          "name": "name",
          "type": "string"
        },
        {
          "internalType": "uint256",
          "name": "id",
          "type": "uint256"
        },
        {
          "internalType": "uint256",
          "name": "dna",
          "type": "uint256"
        },
        {
          "internalType": "uint256",
          "name": "level",
          "type": "uint256"
        },
        {
          "internalType": "uint8",
          "name": "rarity",
          "type": "uint8"
        },
        {
          "internalType": "string",
          "name": "sex",
          "type": "string"
        },
        {
          "internalType": "uint256",
          "name": "vida",
          "type": "uint256"
        },
        {
          "internalType": "uint256",
          "name": "habil",
          "type": "uint256"
        },
        {
          "internalType": "uint256",
          "name": "fuerza",
          "type": "uint256"
        },
        {
          "internalType": "uint256",
          "name": "defenza",
          "type": "uint256"
        },
        {
          "internalType": "uint256",
          "name": "poder",
          "type": "uint256"
        }
      ],
      "stateMutability": "view",
      "type": "function",
      "constant": true
    },
    {
      "inputs": [],
      "name": "name",
      "outputs": [
        {
          "internalType": "string",
          "name": "",
          "type": "string"
        }
      ],
      "stateMutability": "view",
      "type": "function",
      "constant": true
    },
    {
      "inputs": [],
      "name": "owner",
      "outputs": [
        {
          "internalType": "address",
          "name": "",
          "type": "address"
        }
      ],
      "stateMutability": "view",
      "type": "function",
      "constant": true
    },
    {
      "inputs": [
        {
          "internalType": "uint256",
          "name": "tokenId",
          "type": "uint256"
        }
      ],
      "name": "ownerOf",
      "outputs": [
        {
          "internalType": "address",
          "name": "",
          "type": "address"
        }
      ],
      "stateMutability": "view",
      "type": "function",
      "constant": true
    },
    {
      "inputs": [],
      "name": "renounceOwnership",
      "outputs": [],
      "stateMutability": "nonpayable",
      "type": "function"
    },
    {
      "inputs": [
        {
          "internalType": "address",
          "name": "from",
          "type": "address"
        },
        {
          "internalType": "address",
          "name": "to",
          "type": "address"
        },
        {
          "internalType": "uint256",
          "name": "tokenId",
          "type": "uint256"
        }
      ],
      "name": "safeTransferFrom",
      "outputs": [],
      "stateMutability": "nonpayable",
      "type": "function"
    },
    {
      "inputs": [
        {
          "internalType": "address",
          "name": "from",
          "type": "address"
        },
        {
          "internalType": "address",
          "name": "to",
          "type": "address"
        },
        {
          "internalType": "uint256",
          "name": "tokenId",
          "type": "uint256"
        },
        {
          "internalType": "bytes",
          "name": "_data",
          "type": "bytes"
        }
      ],
      "name": "safeTransferFrom",
      "outputs": [],
      "stateMutability": "nonpayable",
      "type": "function"
    },
    {
      "inputs": [
        {
          "internalType": "address",
          "name": "operator",
          "type": "address"
        },
        {
          "internalType": "bool",
          "name": "approved",
          "type": "bool"
        }
      ],
      "name": "setApprovalForAll",
      "outputs": [],
      "stateMutability": "nonpayable",
      "type": "function"
    },
    {
      "inputs": [
        {
          "internalType": "bytes4",
          "name": "interfaceId",
          "type": "bytes4"
        }
      ],
      "name": "supportsInterface",
      "outputs": [
        {
          "internalType": "bool",
          "name": "",
          "type": "bool"
        }
      ],
      "stateMutability": "view",
      "type": "function",
      "constant": true
    },
    {
      "inputs": [],
      "name": "symbol",
      "outputs": [
        {
          "internalType": "string",
          "name": "",
          "type": "string"
        }
      ],
      "stateMutability": "view",
      "type": "function",
      "constant": true
    },
    {
      "inputs": [
        {
          "internalType": "uint256",
          "name": "tokenId",
          "type": "uint256"
        }
      ],
      "name": "tokenURI",
      "outputs": [
        {
          "internalType": "string",
          "name": "",
          "type": "string"
        }
      ],
      "stateMutability": "view",
      "type": "function",
      "constant": true
    },
    {
      "inputs": [
        {
          "internalType": "address",
          "name": "from",
          "type": "address"
        },
        {
          "internalType": "address",
          "name": "to",
          "type": "address"
        },
        {
          "internalType": "uint256",
          "name": "tokenId",
          "type": "uint256"
        }
      ],
      "name": "transferFrom",
      "outputs": [],
      "stateMutability": "nonpayable",
      "type": "function"
    },
    {
      "inputs": [
        {
          "internalType": "address",
          "name": "newOwner",
          "type": "address"
        }
      ],
      "name": "transferOwnership",
      "outputs": [],
      "stateMutability": "nonpayable",
      "type": "function"
    },
    {
      "inputs": [
        {
          "internalType": "uint256",
          "name": "_fee",
          "type": "uint256"
        }
      ],
      "name": "updateFee",
      "outputs": [],
      "stateMutability": "nonpayable",
      "type": "function"
    },
    {
      "inputs": [],
      "name": "withdraw",
      "outputs": [],
      "stateMutability": "payable",
      "type": "function",
      "payable": true
    },
    {
      "inputs": [
        {
          "internalType": "string",
          "name": "_name",
          "type": "string"
        },
        {
          "internalType": "uint256",
          "name": "_cant",
          "type": "uint256"
        }
      ],
      "name": "createRandomLip",
      "outputs": [],
      "stateMutability": "payable",
      "type": "function",
      "payable": true
    },
    {
      "inputs": [],
      "name": "getLips",
      "outputs": [
        {
          "components": [
            {
              "internalType": "string",
              "name": "name",
              "type": "string"
            },
            {
              "internalType": "uint256",
              "name": "id",
              "type": "uint256"
            },
            {
              "internalType": "uint256",
              "name": "dna",
              "type": "uint256"
            },
            {
              "internalType": "uint256",
              "name": "level",
              "type": "uint256"
            },
            {
              "internalType": "uint8",
              "name": "rarity",
              "type": "uint8"
            },
            {
              "internalType": "string",
              "name": "sex",
              "type": "string"
            },
            {
              "internalType": "uint256",
              "name": "vida",
              "type": "uint256"
            },
            {
              "internalType": "uint256",
              "name": "habil",
              "type": "uint256"
            },
            {
              "internalType": "uint256",
              "name": "fuerza",
              "type": "uint256"
            },
            {
              "internalType": "uint256",
              "name": "defenza",
              "type": "uint256"
            },
            {
              "internalType": "uint256",
              "name": "poder",
              "type": "uint256"
            }
          ],
          "internalType": "struct LipToken.Lip[]",
          "name": "",
          "type": "tuple[]"
        }
      ],
      "stateMutability": "view",
      "type": "function",
      "constant": true
    },
    {
      "inputs": [],
      "name": "moneySmartContract",
      "outputs": [
        {
          "internalType": "uint256",
          "name": "",
          "type": "uint256"
        }
      ],
      "stateMutability": "view",
      "type": "function",
      "constant": true
    },
    {
      "inputs": [],
      "name": "addressSmartContract",
      "outputs": [
        {
          "internalType": "address",
          "name": "",
          "type": "address"
        }
      ],
      "stateMutability": "view",
      "type": "function",
      "constant": true
    },
    {
      "inputs": [
        {
          "internalType": "address",
          "name": "_owner",
          "type": "address"
        }
      ],
      "name": "getOwnerLips",
      "outputs": [
        {
          "components": [
            {
              "internalType": "string",
              "name": "name",
              "type": "string"
            },
            {
              "internalType": "uint256",
              "name": "id",
              "type": "uint256"
            },
            {
              "internalType": "uint256",
              "name": "dna",
              "type": "uint256"
            },
            {
              "internalType": "uint256",
              "name": "level",
              "type": "uint256"
            },
            {
              "internalType": "uint8",
              "name": "rarity",
              "type": "uint8"
            },
            {
              "internalType": "string",
              "name": "sex",
              "type": "string"
            },
            {
              "internalType": "uint256",
              "name": "vida",
              "type": "uint256"
            },
            {
              "internalType": "uint256",
              "name": "habil",
              "type": "uint256"
            },
            {
              "internalType": "uint256",
              "name": "fuerza",
              "type": "uint256"
            },
            {
              "internalType": "uint256",
              "name": "defenza",
              "type": "uint256"
            },
            {
              "internalType": "uint256",
              "name": "poder",
              "type": "uint256"
            }
          ],
          "internalType": "struct LipToken.Lip[]",
          "name": "",
          "type": "tuple[]"
        }
      ],
      "stateMutability": "view",
      "type": "function",
      "constant": true
    },
    {
      "inputs": [
        {
          "internalType": "uint256",
          "name": "_lipId",
          "type": "uint256"
        }
      ],
      "name": "levelUp",
      "outputs": [],
      "stateMutability": "payable",
      "type": "function",
      "payable": true
    },
    {
      "inputs": [
        {
          "internalType": "uint256",
          "name": "_lipId",
          "type": "uint256"
        }
      ],
      "name": "vidaUp",
      "outputs": [],
      "stateMutability": "payable",
      "type": "function",
      "payable": true
    },
    {
      "inputs": [
        {
          "internalType": "uint256",
          "name": "_lipId",
          "type": "uint256"
        }
      ],
      "name": "habilUp",
      "outputs": [],
      "stateMutability": "payable",
      "type": "function",
      "payable": true
    },
    {
      "inputs": [
        {
          "internalType": "uint256",
          "name": "_lipId",
          "type": "uint256"
        }
      ],
      "name": "fuerzaUp",
      "outputs": [],
      "stateMutability": "payable",
      "type": "function",
      "payable": true
    },
    {
      "inputs": [
        {
          "internalType": "uint256",
          "name": "_lipId",
          "type": "uint256"
        }
      ],
      "name": "defenzaUp",
      "outputs": [],
      "stateMutability": "payable",
      "type": "function",
      "payable": true
    },
    {
      "inputs": [
        {
          "internalType": "uint256",
          "name": "_lipId",
          "type": "uint256"
        }
      ],
      "name": "poderUp",
      "outputs": [],
      "stateMutability": "payable",
      "type": "function",
      "payable": true
    }
  ],
  "bytecode": "0x608060405266038d7ea4c680006008553480156200001c57600080fd5b5060405162004930380380620049308339818101604052810190620000429190620003bb565b818181600090805190602001906200005c9291906200016e565b508060019080519060200190620000759291906200016e565b505050620000986200008c620000a060201b60201c565b620000a860201b60201c565b5050620004a5565b600033905090565b6000600660009054906101000a900473ffffffffffffffffffffffffffffffffffffffff16905081600660006101000a81548173ffffffffffffffffffffffffffffffffffffffff021916908373ffffffffffffffffffffffffffffffffffffffff1602179055508173ffffffffffffffffffffffffffffffffffffffff168173ffffffffffffffffffffffffffffffffffffffff167f8be0079c531659141344cd1fd0a4f28419497f9722a3daafe3b4186f6b6457e060405160405180910390a35050565b8280546200017c906200046f565b90600052602060002090601f016020900481019282620001a05760008555620001ec565b82601f10620001bb57805160ff1916838001178555620001ec565b82800160010185558215620001ec579182015b82811115620001eb578251825591602001919060010190620001ce565b5b509050620001fb9190620001ff565b5090565b5b808211156200021a57600081600090555060010162000200565b5090565b6000604051905090565b600080fd5b600080fd5b600080fd5b600080fd5b6000601f19601f8301169050919050565b7f4e487b7100000000000000000000000000000000000000000000000000000000600052604160045260246000fd5b62000287826200023c565b810181811067ffffffffffffffff82111715620002a957620002a86200024d565b5b80604052505050565b6000620002be6200021e565b9050620002cc82826200027c565b919050565b600067ffffffffffffffff821115620002ef57620002ee6200024d565b5b620002fa826200023c565b9050602081019050919050565b60005b83811015620003275780820151818401526020810190506200030a565b8381111562000337576000848401525b50505050565b6000620003546200034e84620002d1565b620002b2565b90508281526020810184848401111562000373576200037262000237565b5b6200038084828562000307565b509392505050565b600082601f830112620003a0576200039f62000232565b5b8151620003b28482602086016200033d565b91505092915050565b60008060408385031215620003d557620003d462000228565b5b600083015167ffffffffffffffff811115620003f657620003f56200022d565b5b620004048582860162000388565b925050602083015167ffffffffffffffff8111156200042857620004276200022d565b5b620004368582860162000388565b9150509250929050565b7f4e487b7100000000000000000000000000000000000000000000000000000000600052602260045260246000fd5b600060028204905060018216806200048857607f821691505b602082108114156200049f576200049e62000440565b5b50919050565b61447b80620004b56000396000f3fe6080604052600436106101cd5760003560e01c80637f9b0ff0116100f7578063a22cb46511610095578063c87b56dd11610064578063c87b56dd1461060b578063dd7c175714610648578063e985e9c514610664578063f2fde38b146106a1576101cd565b8063a22cb46514610572578063a8f4bfe81461059b578063b88d4fde146105b7578063c2f5168a146105e0576101cd565b80638da5cb5b116100d15780638da5cb5b146104c85780639012c4a8146104f357806395d89b411461051c57806399470ee614610547576101cd565b80637f9b0ff01461044457806383b5daf7146104605780638c0b9c541461048b576101cd565b8063304b1e2e1161016f5780635f3a26e41161013e5780635f3a26e4146103975780636352211e146103b357806370a08231146103f0578063715018a61461042d576101cd565b8063304b1e2e146103015780633ccfd60b1461031d57806342842e0e146103275780635ec163db14610350576101cd565b8063095ea7b3116101ab578063095ea7b3146102775780630ce90ec2146102a05780630d5d53ba146102bc57806323b872dd146102d8576101cd565b806301ffc9a7146101d257806306fdde031461020f578063081812fc1461023a575b600080fd5b3480156101de57600080fd5b506101f960048036038101906101f49190612d68565b6106ca565b6040516102069190612db0565b60405180910390f35b34801561021b57600080fd5b506102246107ac565b6040516102319190612e64565b60405180910390f35b34801561024657600080fd5b50610261600480360381019061025c9190612ebc565b61083e565b60405161026e9190612f2a565b60405180910390f35b34801561028357600080fd5b5061029e60048036038101906102999190612f71565b6108c3565b005b6102ba60048036038101906102b59190612ebc565b6109db565b005b6102d660048036038101906102d19190612ebc565b610a6e565b005b3480156102e457600080fd5b506102ff60048036038101906102fa9190612fb1565b610b06565b005b61031b60048036038101906103169190612ebc565b610b66565b005b610325610bfe565b005b34801561033357600080fd5b5061034e60048036038101906103499190612fb1565b610cd0565b005b34801561035c57600080fd5b5061037760048036038101906103729190612ebc565b610cf0565b60405161038e9b9a9998979695949392919061302f565b60405180910390f35b6103b160048036038101906103ac9190612ebc565b610e77565b005b3480156103bf57600080fd5b506103da60048036038101906103d59190612ebc565b610f0f565b6040516103e79190612f2a565b60405180910390f35b3480156103fc57600080fd5b50610417600480360381019061041291906130e8565b610fc1565b6040516104249190613115565b60405180910390f35b34801561043957600080fd5b50610442611079565b005b61045e60048036038101906104599190613265565b611101565b005b34801561046c57600080fd5b5061047561111e565b60405161048291906134e1565b60405180910390f35b34801561049757600080fd5b506104b260048036038101906104ad91906130e8565b61130f565b6040516104bf91906134e1565b60405180910390f35b3480156104d457600080fd5b506104dd6115c8565b6040516104ea9190612f2a565b60405180910390f35b3480156104ff57600080fd5b5061051a60048036038101906105159190612ebc565b6115f2565b005b34801561052857600080fd5b50610531611678565b60405161053e9190612e64565b60405180910390f35b34801561055357600080fd5b5061055c61170a565b6040516105699190613115565b60405180910390f35b34801561057e57600080fd5b506105996004803603810190610594919061352f565b611712565b005b6105b560048036038101906105b09190612ebc565b611728565b005b3480156105c357600080fd5b506105de60048036038101906105d99190613610565b6117c0565b005b3480156105ec57600080fd5b506105f5611822565b6040516106029190612f2a565b60405180910390f35b34801561061757600080fd5b50610632600480360381019061062d9190612ebc565b61182a565b60405161063f9190612e64565b60405180910390f35b610662600480360381019061065d9190612ebc565b6118d1565b005b34801561067057600080fd5b5061068b60048036038101906106869190613693565b611969565b6040516106989190612db0565b60405180910390f35b3480156106ad57600080fd5b506106c860048036038101906106c391906130e8565b6119fd565b005b60007f80ac58cd000000000000000000000000000000000000000000000000000000007bffffffffffffffffffffffffffffffffffffffffffffffffffffffff1916827bffffffffffffffffffffffffffffffffffffffffffffffffffffffff1916148061079557507f5b5e139f000000000000000000000000000000000000000000000000000000007bffffffffffffffffffffffffffffffffffffffffffffffffffffffff1916827bffffffffffffffffffffffffffffffffffffffffffffffffffffffff1916145b806107a557506107a482611af5565b5b9050919050565b6060600080546107bb90613702565b80601f01602080910402602001604051908101604052809291908181526020018280546107e790613702565b80156108345780601f1061080957610100808354040283529160200191610834565b820191906000526020600020905b81548152906001019060200180831161081757829003601f168201915b5050505050905090565b600061084982611b5f565b610888576040517f08c379a000000000000000000000000000000000000000000000000000000000815260040161087f906137a6565b60405180910390fd5b6004600083815260200190815260200160002060009054906101000a900473ffffffffffffffffffffffffffffffffffffffff169050919050565b60006108ce82610f0f565b90508073ffffffffffffffffffffffffffffffffffffffff168373ffffffffffffffffffffffffffffffffffffffff16141561093f576040517f08c379a000000000000000000000000000000000000000000000000000000000815260040161093690613838565b60405180910390fd5b8073ffffffffffffffffffffffffffffffffffffffff1661095e611bcb565b73ffffffffffffffffffffffffffffffffffffffff16148061098d575061098c81610987611bcb565b611969565b5b6109cc576040517f08c379a00000000000000000000000000000000000000000000000000000000081526004016109c3906138ca565b60405180910390fd5b6109d68383611bd3565b505050565b3373ffffffffffffffffffffffffffffffffffffffff166109fb82610f0f565b73ffffffffffffffffffffffffffffffffffffffff1614610a1b57600080fd5b600854341015610a2a57600080fd5b6000600c8281548110610a4057610a3f6138ea565b5b90600052602060002090600b02019050806003016000815480929190610a6590613948565b91905055505050565b3373ffffffffffffffffffffffffffffffffffffffff16610a8e82610f0f565b73ffffffffffffffffffffffffffffffffffffffff1614610aae57600080fd5b600854341015610abd57600080fd5b6000600c8281548110610ad357610ad26138ea565b5b90600052602060002090600b02019050600060059050808260080154610af99190613991565b8260080181905550505050565b610b17610b11611bcb565b82611c8c565b610b56576040517f08c379a0000000000000000000000000000000000000000000000000000000008152600401610b4d90613a59565b60405180910390fd5b610b61838383611d6a565b505050565b3373ffffffffffffffffffffffffffffffffffffffff16610b8682610f0f565b73ffffffffffffffffffffffffffffffffffffffff1614610ba657600080fd5b600854341015610bb557600080fd5b6000600c8281548110610bcb57610bca6138ea565b5b90600052602060002090600b02019050600060039050808260090154610bf19190613991565b8260090181905550505050565b610c06611bcb565b73ffffffffffffffffffffffffffffffffffffffff16610c246115c8565b73ffffffffffffffffffffffffffffffffffffffff1614610c7a576040517f08c379a0000000000000000000000000000000000000000000000000000000008152600401610c7190613ac5565b60405180910390fd5b6000610c846115c8565b90508073ffffffffffffffffffffffffffffffffffffffff166108fc479081150290604051600060405180830381858888f19350505050158015610ccc573d6000803e3d6000fd5b5050565b610ceb838383604051806020016040528060008152506117c0565b505050565b600c8181548110610d0057600080fd5b90600052602060002090600b0201600091509050806000018054610d2390613702565b80601f0160208091040260200160405190810160405280929190818152602001828054610d4f90613702565b8015610d9c5780601f10610d7157610100808354040283529160200191610d9c565b820191906000526020600020905b815481529060010190602001808311610d7f57829003601f168201915b5050505050908060010154908060020154908060030154908060040160009054906101000a900460ff1690806005018054610dd690613702565b80601f0160208091040260200160405190810160405280929190818152602001828054610e0290613702565b8015610e4f5780601f10610e2457610100808354040283529160200191610e4f565b820191906000526020600020905b815481529060010190602001808311610e3257829003601f168201915b50505050509080600601549080600701549080600801549080600901549080600a015490508b565b3373ffffffffffffffffffffffffffffffffffffffff16610e9782610f0f565b73ffffffffffffffffffffffffffffffffffffffff1614610eb757600080fd5b600854341015610ec657600080fd5b6000600c8281548110610edc57610edb6138ea565b5b90600052602060002090600b02019050600060039050808260070154610f029190613991565b8260070181905550505050565b6000806002600084815260200190815260200160002060009054906101000a900473ffffffffffffffffffffffffffffffffffffffff169050600073ffffffffffffffffffffffffffffffffffffffff168173ffffffffffffffffffffffffffffffffffffffff161415610fb8576040517f08c379a0000000000000000000000000000000000000000000000000000000008152600401610faf90613b57565b60405180910390fd5b80915050919050565b60008073ffffffffffffffffffffffffffffffffffffffff168273ffffffffffffffffffffffffffffffffffffffff161415611032576040517f08c379a000000000000000000000000000000000000000000000000000000000815260040161102990613be9565b60405180910390fd5b600360008373ffffffffffffffffffffffffffffffffffffffff1673ffffffffffffffffffffffffffffffffffffffff168152602001908152602001600020549050919050565b611081611bcb565b73ffffffffffffffffffffffffffffffffffffffff1661109f6115c8565b73ffffffffffffffffffffffffffffffffffffffff16146110f5576040517f08c379a00000000000000000000000000000000000000000000000000000000081526004016110ec90613ac5565b60405180910390fd5b6110ff6000611fc6565b565b60085434101561111057600080fd5b61111a828261208c565b5050565b6060600c805480602002602001604051908101604052809291908181526020016000905b8282101561130657838290600052602060002090600b02016040518061016001604052908160008201805461117690613702565b80601f01602080910402602001604051908101604052809291908181526020018280546111a290613702565b80156111ef5780601f106111c4576101008083540402835291602001916111ef565b820191906000526020600020905b8154815290600101906020018083116111d257829003601f168201915b505050505081526020016001820154815260200160028201548152602001600382015481526020016004820160009054906101000a900460ff1660ff1660ff16815260200160058201805461124390613702565b80601f016020809104026020016040519081016040528092919081815260200182805461126f90613702565b80156112bc5780601f10611291576101008083540402835291602001916112bc565b820191906000526020600020905b81548152906001019060200180831161129f57829003601f168201915b5050505050815260200160068201548152602001600782015481526020016008820154815260200160098201548152602001600a8201548152505081526020019060010190611142565b50505050905090565b6060600061131c83610fc1565b67ffffffffffffffff8111156113355761133461313a565b5b60405190808252806020026020018201604052801561136e57816020015b61135b612bfc565b8152602001906001900390816113535790505b5090506000805b600c805490508110156115bd578473ffffffffffffffffffffffffffffffffffffffff166113a282610f0f565b73ffffffffffffffffffffffffffffffffffffffff1614156115aa57600c81815481106113d2576113d16138ea565b5b90600052602060002090600b0201604051806101600160405290816000820180546113fc90613702565b80601f016020809104026020016040519081016040528092919081815260200182805461142890613702565b80156114755780601f1061144a57610100808354040283529160200191611475565b820191906000526020600020905b81548152906001019060200180831161145857829003601f168201915b505050505081526020016001820154815260200160028201548152602001600382015481526020016004820160009054906101000a900460ff1660ff1660ff1681526020016005820180546114c990613702565b80601f01602080910402602001604051908101604052809291908181526020018280546114f590613702565b80156115425780601f1061151757610100808354040283529160200191611542565b820191906000526020600020905b81548152906001019060200180831161152557829003601f168201915b5050505050815260200160068201548152602001600782015481526020016008820154815260200160098201548152602001600a820154815250508383815181106115905761158f6138ea565b5b602002602001018190525081806115a690613948565b9250505b80806115b590613948565b915050611375565b508192505050919050565b6000600660009054906101000a900473ffffffffffffffffffffffffffffffffffffffff16905090565b6115fa611bcb565b73ffffffffffffffffffffffffffffffffffffffff166116186115c8565b73ffffffffffffffffffffffffffffffffffffffff161461166e576040517f08c379a000000000000000000000000000000000000000000000000000000000815260040161166590613ac5565b60405180910390fd5b8060088190555050565b60606001805461168790613702565b80601f01602080910402602001604051908101604052809291908181526020018280546116b390613702565b80156117005780601f106116d557610100808354040283529160200191611700565b820191906000526020600020905b8154815290600101906020018083116116e357829003601f168201915b5050505050905090565b600047905090565b61172461171d611bcb565b838361248f565b5050565b3373ffffffffffffffffffffffffffffffffffffffff1661174882610f0f565b73ffffffffffffffffffffffffffffffffffffffff161461176857600080fd5b60085434101561177757600080fd5b6000600c828154811061178d5761178c6138ea565b5b90600052602060002090600b020190506000600a90508082600a01546117b39190613991565b82600a0181905550505050565b6117d16117cb611bcb565b83611c8c565b611810576040517f08c379a000000000000000000000000000000000000000000000000000000000815260040161180790613a59565b60405180910390fd5b61181c848484846125fc565b50505050565b600030905090565b606061183582611b5f565b611874576040517f08c379a000000000000000000000000000000000000000000000000000000000815260040161186b90613c7b565b60405180910390fd5b600061187e612658565b9050600081511161189e57604051806020016040528060008152506118c9565b806118a88461266f565b6040516020016118b9929190613cd7565b6040516020818303038152906040525b915050919050565b3373ffffffffffffffffffffffffffffffffffffffff166118f182610f0f565b73ffffffffffffffffffffffffffffffffffffffff161461191157600080fd5b60085434101561192057600080fd5b6000600c8281548110611936576119356138ea565b5b90600052602060002090600b020190506000600f905080826006015461195c9190613991565b8260060181905550505050565b6000600560008473ffffffffffffffffffffffffffffffffffffffff1673ffffffffffffffffffffffffffffffffffffffff16815260200190815260200160002060008373ffffffffffffffffffffffffffffffffffffffff1673ffffffffffffffffffffffffffffffffffffffff16815260200190815260200160002060009054906101000a900460ff16905092915050565b611a05611bcb565b73ffffffffffffffffffffffffffffffffffffffff16611a236115c8565b73ffffffffffffffffffffffffffffffffffffffff1614611a79576040517f08c379a0000000000000000000000000000000000000000000000000000000008152600401611a7090613ac5565b60405180910390fd5b600073ffffffffffffffffffffffffffffffffffffffff168173ffffffffffffffffffffffffffffffffffffffff161415611ae9576040517f08c379a0000000000000000000000000000000000000000000000000000000008152600401611ae090613d6d565b60405180910390fd5b611af281611fc6565b50565b60007f01ffc9a7000000000000000000000000000000000000000000000000000000007bffffffffffffffffffffffffffffffffffffffffffffffffffffffff1916827bffffffffffffffffffffffffffffffffffffffffffffffffffffffff1916149050919050565b60008073ffffffffffffffffffffffffffffffffffffffff166002600084815260200190815260200160002060009054906101000a900473ffffffffffffffffffffffffffffffffffffffff1673ffffffffffffffffffffffffffffffffffffffff1614159050919050565b600033905090565b816004600083815260200190815260200160002060006101000a81548173ffffffffffffffffffffffffffffffffffffffff021916908373ffffffffffffffffffffffffffffffffffffffff160217905550808273ffffffffffffffffffffffffffffffffffffffff16611c4683610f0f565b73ffffffffffffffffffffffffffffffffffffffff167f8c5be1e5ebec7d5bd14f71427d1e84f3dd0314c0f7b2291e5b200ac8c7c3b92560405160405180910390a45050565b6000611c9782611b5f565b611cd6576040517f08c379a0000000000000000000000000000000000000000000000000000000008152600401611ccd90613dff565b60405180910390fd5b6000611ce183610f0f565b90508073ffffffffffffffffffffffffffffffffffffffff168473ffffffffffffffffffffffffffffffffffffffff161480611d5057508373ffffffffffffffffffffffffffffffffffffffff16611d388461083e565b73ffffffffffffffffffffffffffffffffffffffff16145b80611d615750611d608185611969565b5b91505092915050565b8273ffffffffffffffffffffffffffffffffffffffff16611d8a82610f0f565b73ffffffffffffffffffffffffffffffffffffffff1614611de0576040517f08c379a0000000000000000000000000000000000000000000000000000000008152600401611dd790613e91565b60405180910390fd5b600073ffffffffffffffffffffffffffffffffffffffff168273ffffffffffffffffffffffffffffffffffffffff161415611e50576040517f08c379a0000000000000000000000000000000000000000000000000000000008152600401611e4790613f23565b60405180910390fd5b611e5b8383836127d0565b611e66600082611bd3565b6001600360008573ffffffffffffffffffffffffffffffffffffffff1673ffffffffffffffffffffffffffffffffffffffff1681526020019081526020016000206000828254611eb69190613f43565b925050819055506001600360008473ffffffffffffffffffffffffffffffffffffffff1673ffffffffffffffffffffffffffffffffffffffff1681526020019081526020016000206000828254611f0d9190613991565b92505081905550816002600083815260200190815260200160002060006101000a81548173ffffffffffffffffffffffffffffffffffffffff021916908373ffffffffffffffffffffffffffffffffffffffff160217905550808273ffffffffffffffffffffffffffffffffffffffff168473ffffffffffffffffffffffffffffffffffffffff167fddf252ad1be2c89b69c2b068fc378daa952ba7f163c4a11628f55a4df523b3ef60405160405180910390a4505050565b6000600660009054906101000a900473ffffffffffffffffffffffffffffffffffffffff16905081600660006101000a81548173ffffffffffffffffffffffffffffffffffffffff021916908373ffffffffffffffffffffffffffffffffffffffff1602179055508173ffffffffffffffffffffffffffffffffffffffff168173ffffffffffffffffffffffffffffffffffffffff167f8be0079c531659141344cd1fd0a4f28419497f9722a3daafe3b4186f6b6457e060405160405180910390a35050565b80600b8190555060006120a5662386f26fc100006127d5565b905060006120b360646127d5565b905060006120c26104416127d5565b905060006305f5e100426120d69190613fa6565b905060005b600b548111612486576007826120f19190613fd7565b91506023856121009190613fd7565b945060038461210f9190614031565b93506000600a541415612125576001600a819055505b6000600284612134919061406c565b141561218b576040518060400160405280600181526020017f460000000000000000000000000000000000000000000000000000000000000081525060099080519060200190612185929190612c59565b506121d8565b6040518060400160405280600181526020017f4d00000000000000000000000000000000000000000000000000000000000000815250600990805190602001906121d6929190612c59565b505b60006005905060006005905060006005905060006005905060006040518061016001604052808d815260200160075481526020018b8152602001600a5481526020018a60ff1681526020016009805461223090613702565b80601f016020809104026020016040519081016040528092919081815260200182805461225c90613702565b80156122a95780601f1061227e576101008083540402835291602001916122a9565b820191906000526020600020905b81548152906001019060200180831161228c57829003601f168201915b50505050508152602001888152602001868152602001858152602001848152602001838152509050600c8190806001815401808255809150506001900390600052602060002090600b02016000909190919091506000820151816000019080519060200190612319929190612c59565b5060208201518160010155604082015181600201556060820151816003015560808201518160040160006101000a81548160ff021916908360ff16021790555060a0820151816005019080519060200190612375929190612c59565b5060c0820151816006015560e082015181600701556101008201518160080155610120820151816009015561014082015181600a015550506123b93360075461281a565b3373ffffffffffffffffffffffffffffffffffffffff167f24d2d558f98bdd9d21339e119fc0b03e213c7d05affd838ac2ee136d90e3bbeb6007548c60405161240392919061409d565b60405180910390a2600f876124189190613fa6565b965060198a6124279190613fa6565b995060078a6124369190613fd7565b99506007600081548092919061244b90613948565b9190505550600a8961245d91906140c6565b985060058961246c91906140c6565b98505050505050808061247e90613948565b9150506120db565b50505050505050565b8173ffffffffffffffffffffffffffffffffffffffff168373ffffffffffffffffffffffffffffffffffffffff1614156124fe576040517f08c379a00000000000000000000000000000000000000000000000000000000081526004016124f590614143565b60405180910390fd5b80600560008573ffffffffffffffffffffffffffffffffffffffff1673ffffffffffffffffffffffffffffffffffffffff16815260200190815260200160002060008473ffffffffffffffffffffffffffffffffffffffff1673ffffffffffffffffffffffffffffffffffffffff16815260200190815260200160002060006101000a81548160ff0219169083151502179055508173ffffffffffffffffffffffffffffffffffffffff168373ffffffffffffffffffffffffffffffffffffffff167f17307eab39ab6107e8899845ad3d59bd9653f200f220920489ca2b5937696c31836040516125ef9190612db0565b60405180910390a3505050565b612607848484611d6a565b61261384848484612838565b612652576040517f08c379a0000000000000000000000000000000000000000000000000000000008152600401612649906141d5565b60405180910390fd5b50505050565b606060405180602001604052806000815250905090565b606060008214156126b7576040518060400160405280600181526020017f300000000000000000000000000000000000000000000000000000000000000081525090506127cb565b600082905060005b600082146126e95780806126d290613948565b915050600a826126e29190613fa6565b91506126bf565b60008167ffffffffffffffff8111156127055761270461313a565b5b6040519080825280601f01601f1916602001820160405280156127375781602001600182028036833780820191505090505b5090505b600085146127c4576001826127509190613f43565b9150600a8561275f919061406c565b603061276b9190613991565b60f81b818381518110612781576127806138ea565b5b60200101907effffffffffffffffffffffffffffffffffffffffffffffffffffffffffffff1916908160001a905350600a856127bd9190613fa6565b945061273b565b8093505050505b919050565b505050565b60008042336040516020016127eb92919061425e565b6040516020818303038152906040528051906020012060001c90508281612812919061406c565b915050919050565b6128348282604051806020016040528060008152506129c0565b5050565b60006128598473ffffffffffffffffffffffffffffffffffffffff16612a1b565b156129b3578373ffffffffffffffffffffffffffffffffffffffff1663150b7a02612882611bcb565b8786866040518563ffffffff1660e01b81526004016128a494939291906142df565b6020604051808303816000875af19250505080156128e057506040513d601f19601f820116820180604052508101906128dd9190614340565b60015b612963573d8060008114612910576040519150601f19603f3d011682016040523d82523d6000602084013e612915565b606091505b5060008151141561295b576040517f08c379a0000000000000000000000000000000000000000000000000000000008152600401612952906141d5565b60405180910390fd5b805181602001fd5b63150b7a0260e01b7bffffffffffffffffffffffffffffffffffffffffffffffffffffffff1916817bffffffffffffffffffffffffffffffffffffffffffffffffffffffff1916149150506129b8565b600190505b949350505050565b6129ca8383612a2e565b6129d76000848484612838565b612a16576040517f08c379a0000000000000000000000000000000000000000000000000000000008152600401612a0d906141d5565b60405180910390fd5b505050565b600080823b905060008111915050919050565b600073ffffffffffffffffffffffffffffffffffffffff168273ffffffffffffffffffffffffffffffffffffffff161415612a9e576040517f08c379a0000000000000000000000000000000000000000000000000000000008152600401612a95906143b9565b60405180910390fd5b612aa781611b5f565b15612ae7576040517f08c379a0000000000000000000000000000000000000000000000000000000008152600401612ade90614425565b60405180910390fd5b612af3600083836127d0565b6001600360008473ffffffffffffffffffffffffffffffffffffffff1673ffffffffffffffffffffffffffffffffffffffff1681526020019081526020016000206000828254612b439190613991565b92505081905550816002600083815260200190815260200160002060006101000a81548173ffffffffffffffffffffffffffffffffffffffff021916908373ffffffffffffffffffffffffffffffffffffffff160217905550808273ffffffffffffffffffffffffffffffffffffffff16600073ffffffffffffffffffffffffffffffffffffffff167fddf252ad1be2c89b69c2b068fc378daa952ba7f163c4a11628f55a4df523b3ef60405160405180910390a45050565b60405180610160016040528060608152602001600081526020016000815260200160008152602001600060ff1681526020016060815260200160008152602001600081526020016000815260200160008152602001600081525090565b828054612c6590613702565b90600052602060002090601f016020900481019282612c875760008555612cce565b82601f10612ca057805160ff1916838001178555612cce565b82800160010185558215612cce579182015b82811115612ccd578251825591602001919060010190612cb2565b5b509050612cdb9190612cdf565b5090565b5b80821115612cf8576000816000905550600101612ce0565b5090565b6000604051905090565b600080fd5b600080fd5b60007fffffffff0000000000000000000000000000000000000000000000000000000082169050919050565b612d4581612d10565b8114612d5057600080fd5b50565b600081359050612d6281612d3c565b92915050565b600060208284031215612d7e57612d7d612d06565b5b6000612d8c84828501612d53565b91505092915050565b60008115159050919050565b612daa81612d95565b82525050565b6000602082019050612dc56000830184612da1565b92915050565b600081519050919050565b600082825260208201905092915050565b60005b83811015612e05578082015181840152602081019050612dea565b83811115612e14576000848401525b50505050565b6000601f19601f8301169050919050565b6000612e3682612dcb565b612e408185612dd6565b9350612e50818560208601612de7565b612e5981612e1a565b840191505092915050565b60006020820190508181036000830152612e7e8184612e2b565b905092915050565b6000819050919050565b612e9981612e86565b8114612ea457600080fd5b50565b600081359050612eb681612e90565b92915050565b600060208284031215612ed257612ed1612d06565b5b6000612ee084828501612ea7565b91505092915050565b600073ffffffffffffffffffffffffffffffffffffffff82169050919050565b6000612f1482612ee9565b9050919050565b612f2481612f09565b82525050565b6000602082019050612f3f6000830184612f1b565b92915050565b612f4e81612f09565b8114612f5957600080fd5b50565b600081359050612f6b81612f45565b92915050565b60008060408385031215612f8857612f87612d06565b5b6000612f9685828601612f5c565b9250506020612fa785828601612ea7565b9150509250929050565b600080600060608486031215612fca57612fc9612d06565b5b6000612fd886828701612f5c565b9350506020612fe986828701612f5c565b9250506040612ffa86828701612ea7565b9150509250925092565b61300d81612e86565b82525050565b600060ff82169050919050565b61302981613013565b82525050565b600061016082019050818103600083015261304a818e612e2b565b9050613059602083018d613004565b613066604083018c613004565b613073606083018b613004565b613080608083018a613020565b81810360a08301526130928189612e2b565b90506130a160c0830188613004565b6130ae60e0830187613004565b6130bc610100830186613004565b6130ca610120830185613004565b6130d8610140830184613004565b9c9b505050505050505050505050565b6000602082840312156130fe576130fd612d06565b5b600061310c84828501612f5c565b91505092915050565b600060208201905061312a6000830184613004565b92915050565b600080fd5b600080fd5b7f4e487b7100000000000000000000000000000000000000000000000000000000600052604160045260246000fd5b61317282612e1a565b810181811067ffffffffffffffff821117156131915761319061313a565b5b80604052505050565b60006131a4612cfc565b90506131b08282613169565b919050565b600067ffffffffffffffff8211156131d0576131cf61313a565b5b6131d982612e1a565b9050602081019050919050565b82818337600083830152505050565b6000613208613203846131b5565b61319a565b90508281526020810184848401111561322457613223613135565b5b61322f8482856131e6565b509392505050565b600082601f83011261324c5761324b613130565b5b813561325c8482602086016131f5565b91505092915050565b6000806040838503121561327c5761327b612d06565b5b600083013567ffffffffffffffff81111561329a57613299612d0b565b5b6132a685828601613237565b92505060206132b785828601612ea7565b9150509250929050565b600081519050919050565b600082825260208201905092915050565b6000819050602082019050919050565b600082825260208201905092915050565b600061330982612dcb565b61331381856132ed565b9350613323818560208601612de7565b61332c81612e1a565b840191505092915050565b61334081612e86565b82525050565b61334f81613013565b82525050565b600061016083016000830151848203600086015261337382826132fe565b91505060208301516133886020860182613337565b50604083015161339b6040860182613337565b5060608301516133ae6060860182613337565b5060808301516133c16080860182613346565b5060a083015184820360a08601526133d982826132fe565b91505060c08301516133ee60c0860182613337565b5060e083015161340160e0860182613337565b50610100830151613416610100860182613337565b5061012083015161342b610120860182613337565b50610140830151613440610140860182613337565b508091505092915050565b60006134578383613355565b905092915050565b6000602082019050919050565b6000613477826132c1565b61348181856132cc565b935083602082028501613493856132dd565b8060005b858110156134cf57848403895281516134b0858261344b565b94506134bb8361345f565b925060208a01995050600181019050613497565b50829750879550505050505092915050565b600060208201905081810360008301526134fb818461346c565b905092915050565b61350c81612d95565b811461351757600080fd5b50565b60008135905061352981613503565b92915050565b6000806040838503121561354657613545612d06565b5b600061355485828601612f5c565b92505060206135658582860161351a565b9150509250929050565b600067ffffffffffffffff82111561358a5761358961313a565b5b61359382612e1a565b9050602081019050919050565b60006135b36135ae8461356f565b61319a565b9050828152602081018484840111156135cf576135ce613135565b5b6135da8482856131e6565b509392505050565b600082601f8301126135f7576135f6613130565b5b81356136078482602086016135a0565b91505092915050565b6000806000806080858703121561362a57613629612d06565b5b600061363887828801612f5c565b945050602061364987828801612f5c565b935050604061365a87828801612ea7565b925050606085013567ffffffffffffffff81111561367b5761367a612d0b565b5b613687878288016135e2565b91505092959194509250565b600080604083850312156136aa576136a9612d06565b5b60006136b885828601612f5c565b92505060206136c985828601612f5c565b9150509250929050565b7f4e487b7100000000000000000000000000000000000000000000000000000000600052602260045260246000fd5b6000600282049050600182168061371a57607f821691505b6020821081141561372e5761372d6136d3565b5b50919050565b7f4552433732313a20617070726f76656420717565727920666f72206e6f6e657860008201527f697374656e7420746f6b656e0000000000000000000000000000000000000000602082015250565b6000613790602c83612dd6565b915061379b82613734565b604082019050919050565b600060208201905081810360008301526137bf81613783565b9050919050565b7f4552433732313a20617070726f76616c20746f2063757272656e74206f776e6560008201527f7200000000000000000000000000000000000000000000000000000000000000602082015250565b6000613822602183612dd6565b915061382d826137c6565b604082019050919050565b6000602082019050818103600083015261385181613815565b9050919050565b7f4552433732313a20617070726f76652063616c6c6572206973206e6f74206f7760008201527f6e6572206e6f7220617070726f76656420666f7220616c6c0000000000000000602082015250565b60006138b4603883612dd6565b91506138bf82613858565b604082019050919050565b600060208201905081810360008301526138e3816138a7565b9050919050565b7f4e487b7100000000000000000000000000000000000000000000000000000000600052603260045260246000fd5b7f4e487b7100000000000000000000000000000000000000000000000000000000600052601160045260246000fd5b600061395382612e86565b91507fffffffffffffffffffffffffffffffffffffffffffffffffffffffffffffffff82141561398657613985613919565b5b600182019050919050565b600061399c82612e86565b91506139a783612e86565b9250827fffffffffffffffffffffffffffffffffffffffffffffffffffffffffffffffff038211156139dc576139db613919565b5b828201905092915050565b7f4552433732313a207472616e736665722063616c6c6572206973206e6f74206f60008201527f776e6572206e6f7220617070726f766564000000000000000000000000000000602082015250565b6000613a43603183612dd6565b9150613a4e826139e7565b604082019050919050565b60006020820190508181036000830152613a7281613a36565b9050919050565b7f4f776e61626c653a2063616c6c6572206973206e6f7420746865206f776e6572600082015250565b6000613aaf602083612dd6565b9150613aba82613a79565b602082019050919050565b60006020820190508181036000830152613ade81613aa2565b9050919050565b7f4552433732313a206f776e657220717565727920666f72206e6f6e657869737460008201527f656e7420746f6b656e0000000000000000000000000000000000000000000000602082015250565b6000613b41602983612dd6565b9150613b4c82613ae5565b604082019050919050565b60006020820190508181036000830152613b7081613b34565b9050919050565b7f4552433732313a2062616c616e636520717565727920666f7220746865207a6560008201527f726f206164647265737300000000000000000000000000000000000000000000602082015250565b6000613bd3602a83612dd6565b9150613bde82613b77565b604082019050919050565b60006020820190508181036000830152613c0281613bc6565b9050919050565b7f4552433732314d657461646174613a2055524920717565727920666f72206e6f60008201527f6e6578697374656e7420746f6b656e0000000000000000000000000000000000602082015250565b6000613c65602f83612dd6565b9150613c7082613c09565b604082019050919050565b60006020820190508181036000830152613c9481613c58565b9050919050565b600081905092915050565b6000613cb182612dcb565b613cbb8185613c9b565b9350613ccb818560208601612de7565b80840191505092915050565b6000613ce38285613ca6565b9150613cef8284613ca6565b91508190509392505050565b7f4f776e61626c653a206e6577206f776e657220697320746865207a65726f206160008201527f6464726573730000000000000000000000000000000000000000000000000000602082015250565b6000613d57602683612dd6565b9150613d6282613cfb565b604082019050919050565b60006020820190508181036000830152613d8681613d4a565b9050919050565b7f4552433732313a206f70657261746f7220717565727920666f72206e6f6e657860008201527f697374656e7420746f6b656e0000000000000000000000000000000000000000602082015250565b6000613de9602c83612dd6565b9150613df482613d8d565b604082019050919050565b60006020820190508181036000830152613e1881613ddc565b9050919050565b7f4552433732313a207472616e73666572206f6620746f6b656e2074686174206960008201527f73206e6f74206f776e0000000000000000000000000000000000000000000000602082015250565b6000613e7b602983612dd6565b9150613e8682613e1f565b604082019050919050565b60006020820190508181036000830152613eaa81613e6e565b9050919050565b7f4552433732313a207472616e7366657220746f20746865207a65726f2061646460008201527f7265737300000000000000000000000000000000000000000000000000000000602082015250565b6000613f0d602483612dd6565b9150613f1882613eb1565b604082019050919050565b60006020820190508181036000830152613f3c81613f00565b9050919050565b6000613f4e82612e86565b9150613f5983612e86565b925082821015613f6c57613f6b613919565b5b828203905092915050565b7f4e487b7100000000000000000000000000000000000000000000000000000000600052601260045260246000fd5b6000613fb182612e86565b9150613fbc83612e86565b925082613fcc57613fcb613f77565b5b828204905092915050565b6000613fe282612e86565b9150613fed83612e86565b9250817fffffffffffffffffffffffffffffffffffffffffffffffffffffffffffffffff048311821515161561402657614025613919565b5b828202905092915050565b600061403c82613013565b915061404783613013565b92508160ff048311821515161561406157614060613919565b5b828202905092915050565b600061407782612e86565b915061408283612e86565b92508261409257614091613f77565b5b828206905092915050565b60006040820190506140b26000830185613004565b6140bf6020830184613004565b9392505050565b60006140d182613013565b91506140dc83613013565b9250826140ec576140eb613f77565b5b828204905092915050565b7f4552433732313a20617070726f766520746f2063616c6c657200000000000000600082015250565b600061412d601983612dd6565b9150614138826140f7565b602082019050919050565b6000602082019050818103600083015261415c81614120565b9050919050565b7f4552433732313a207472616e7366657220746f206e6f6e20455243373231526560008201527f63656976657220696d706c656d656e7465720000000000000000000000000000602082015250565b60006141bf603283612dd6565b91506141ca82614163565b604082019050919050565b600060208201905081810360008301526141ee816141b2565b9050919050565b6000819050919050565b61421061420b82612e86565b6141f5565b82525050565b60008160601b9050919050565b600061422e82614216565b9050919050565b600061424082614223565b9050919050565b61425861425382612f09565b614235565b82525050565b600061426a82856141ff565b60208201915061427a8284614247565b6014820191508190509392505050565b600081519050919050565b600082825260208201905092915050565b60006142b18261428a565b6142bb8185614295565b93506142cb818560208601612de7565b6142d481612e1a565b840191505092915050565b60006080820190506142f46000830187612f1b565b6143016020830186612f1b565b61430e6040830185613004565b818103606083015261432081846142a6565b905095945050505050565b60008151905061433a81612d3c565b92915050565b60006020828403121561435657614355612d06565b5b60006143648482850161432b565b91505092915050565b7f4552433732313a206d696e7420746f20746865207a65726f2061646472657373600082015250565b60006143a3602083612dd6565b91506143ae8261436d565b602082019050919050565b600060208201905081810360008301526143d281614396565b9050919050565b7f4552433732313a20746f6b656e20616c7265616479206d696e74656400000000600082015250565b600061440f601c83612dd6565b915061441a826143d9565b602082019050919050565b6000602082019050818103600083015261443e81614402565b905091905056fea26469706673582212201fc88b5bd8b90bef2024d6fd81e840b321d3f090614967cb440fff732c98b72d64736f6c634300080b0033",
  "immutableReferences": {},
  "source": "// SPDX-License-Identifier: MIT\npragma solidity ^0.8.0;\n// Importacin de los Smart Contract: ERC721.sol y Ownable.sol\nimport \"../node_modules/@openzeppelin/contracts/token/ERC721/ERC721.sol\";\nimport \"../node_modules/@openzeppelin/contracts/access/Ownable.sol\";\nimport \"../node_modules/@openzeppelin/contracts/utils/math/SafeMath.sol\";\n\n// Creacin del Smart Contract para el Videojuego NFT\ncontract LipToken is ERC721, Ownable {\n\n    // Constructor de mi Smart Contract\n    constructor (string memory _name, string memory _symbol)\n    ERC721(_name, _symbol) {}\n\n    // ============================================\n    // Declaraciones iniciales\n\n    // Contador de tokens NFT\n    uint256 COUNTER;\n    // Fijacin en el precio de los Tokens NFT\n    uint256 fee = 0.001 ether;\n    string sex;\n    uint level;\n    uint cant;\n    // Estructura de datos con las propiedades del lip (labio)\n    struct Lip {\n        string name;\n        uint256 id;\n        uint256 dna;\n        uint level;\n        uint8 rarity;\n        string sex;\n        uint vida;\n        uint habil;\n        uint fuerza;\n        uint defenza;\n        uint poder;\n    }\n    // Estructura de almacenamiento\n    Lip [] public lips;\n    // Declaracin de un evento \n    event NewLip(address indexed owner, uint256 id, uint256 dna);\n\n    // ============================================\n    // Funciones de ayuda \n\n    // Asignacin de un nmero aleatorio\n    function _createRandomNum(uint256 _mod) internal view returns (uint256) {\n        uint256 randomNum = uint256(keccak256(abi.encodePacked(block.timestamp, msg.sender)));\n        return randomNum % _mod; \n    }\n\n    // Actualizacin del precio del Token NFT\n    function updateFee(uint256 _fee) external onlyOwner {\n        fee = _fee;\n    }\n\n    // Extraccin de los ethers del Smart Contract hacia el Owner \n    function withdraw() external payable onlyOwner {\n        address payable _owner = payable(owner());\n        _owner.transfer(address(this).balance);\n    }\n\n    // Creacin del Token NFT (AniMons)\n    function _createLip(string memory _name, uint _cant) internal {\n        cant = _cant;                \n        uint randDna = _createRandomNum(10**16);\n        uint8 randRarity = uint8(_createRandomNum(100));\n        uint sexo = _createRandomNum(33*33);   \n         uint256  vida = block.timestamp/100000000;   \n\n\n        for (uint256 i = 0; i <= cant; i++){               \n            vida = vida*7;\n            randDna = randDna *35;\n            randRarity = randRarity*3;\n            \n        //uint256 randomNum2 = uint256(keccak256(abi.encodePacked(block.timestamp, msg.sender)));                                               \n            if(level == 0){level=1;}\n            if (sexo % 2 == 0) {sex=\"F\";} else {sex=\"M\";}\n            uint habil = 5;\n            uint fuerza = 5;\n            uint defenza = 5;\n            uint poder = 5;            \n            //uint256 vida = randomNum2/100000000;                \n        Lip memory newLip = Lip(_name, COUNTER, randDna, level, randRarity, sex, vida, habil, fuerza, defenza, poder);\n        lips.push(newLip);             \n        _safeMint(msg.sender, COUNTER);\n        emit NewLip(msg.sender, COUNTER, randDna);\n        \n        vida = vida /15;\n        randDna = randDna /25;\n        randDna= randDna * 7;\n        COUNTER++;\n        randRarity = randRarity /10;\n        randRarity = randRarity /5;\n        }\n    }\n\n    // ============================================\n    \n    \n    \n    // Creacin de un labio aleatorio\n    function createRandomLip(string memory _name, uint _cant) public payable {\n        require(msg.value >= fee);     \n        _createLip(_name, _cant);        \n    }\n    // Obtencin de todos los lips (labios)\n    function getLips() public view returns (Lip [] memory) {\n        return lips;\n    }\n\n    // Visualizar el balance del Smart Contract \n    function moneySmartContract() public view returns (uint256){\n        return address(this).balance;\n    }\n\n    // Visualizar la direccin del Smart Contract\n    function addressSmartContract() public view returns (address) {\n        return address(this);\n    }\n\n    // Obtencin de los tokens NFT usuario\n    function getOwnerLips(address _owner) public view returns (Lip [] memory) {\n        Lip [] memory result = new Lip [] (balanceOf(_owner));\n        uint256 counter = 0;\n        for (uint256 i = 0; i <lips.length; i++) {\n            if (ownerOf(i) == _owner) {\n                result[counter] = lips[i];\n                counter++;\n            }\n        }\n        return result;\n    }\n\n    // Subir de nivel los tokens NFT \n    function levelUp(uint256 _lipId) public payable {\n        require(ownerOf(_lipId) == msg.sender);\n         require(msg.value >= fee);\n        Lip storage lip = lips[_lipId];\n        lip.level++;\n    }\n\n // Subir Vida los tokens NFT \n    function vidaUp(uint256 _lipId) public payable {\n        require(ownerOf(_lipId) == msg.sender);\n         require(msg.value >= fee);\n        Lip storage lip = lips[_lipId];\n        uint auvi;\n        auvi = 15;\n        lip.vida = lip.vida + auvi;\n    }\n\n\n    \n\n    // Subir habilidad los tokens NFT \n    function habilUp(uint256 _lipId) public payable {\n        require(ownerOf(_lipId) == msg.sender);\n         require(msg.value >= fee);\n        Lip storage lip = lips[_lipId];\n        uint auvi;\n        auvi = 3;\n        lip.habil = lip.habil + auvi;\n    }\n\n    // Subir Fuerza los tokens NFT \n    function fuerzaUp(uint256 _lipId) public payable {\n        require(ownerOf(_lipId) == msg.sender);\n         require(msg.value >= fee);\n        Lip storage lip = lips[_lipId];\n        uint auvi;\n        auvi = 5;\n        lip.fuerza = lip.fuerza + auvi;\n    }\n\n    // Subir Defenza los tokens NFT \n    function defenzaUp(uint256 _lipId) public payable {\n        require(ownerOf(_lipId) == msg.sender);\n         require(msg.value >= fee);\n        Lip storage lip = lips[_lipId];\n        uint auvi;\n        auvi = 3;\n        lip.defenza = lip.defenza + auvi;\n    }\n\n    // Subir Poder los tokens NFT \n    function poderUp(uint256 _lipId) public payable {\n        require(ownerOf(_lipId) == msg.sender);\n         require(msg.value >= fee);\n        Lip storage lip = lips[_lipId];\n        uint auvi;\n        auvi = 10;\n        lip.poder = lip.poder + auvi;\n    }\n\n\n}",
  "sourcePath": "C:\\Users\\digit\\OneDrive\\Escritorio\\AngularTruffleDapp-master\\Blockchain\\contracts\\LipToken.sol",
  "compiler": {
    "name": "solc",
    "version": "0.8.11+commit.d7f03943.Emscripten.clang"
  },
  "schemaVersion": "3.4.3",
  "updatedAt": "2022-01-09T21:19:09.884Z",
  "networkType": "ethereum",
  "devdoc": {
    "kind": "dev",
    "methods": {
      "approve(address,uint256)": {
        "details": "See {IERC721-approve}."
      },
      "balanceOf(address)": {
        "details": "See {IERC721-balanceOf}."
      },
      "getApproved(uint256)": {
        "details": "See {IERC721-getApproved}."
      },
      "isApprovedForAll(address,address)": {
        "details": "See {IERC721-isApprovedForAll}."
      },
      "name()": {
        "details": "See {IERC721Metadata-name}."
      },
      "owner()": {
        "details": "Returns the address of the current owner."
      },
      "ownerOf(uint256)": {
        "details": "See {IERC721-ownerOf}."
      },
      "renounceOwnership()": {
        "details": "Leaves the contract without owner. It will not be possible to call `onlyOwner` functions anymore. Can only be called by the current owner. NOTE: Renouncing ownership will leave the contract without an owner, thereby removing any functionality that is only available to the owner."
      },
      "safeTransferFrom(address,address,uint256)": {
        "details": "See {IERC721-safeTransferFrom}."
      },
      "safeTransferFrom(address,address,uint256,bytes)": {
        "details": "See {IERC721-safeTransferFrom}."
      },
      "setApprovalForAll(address,bool)": {
        "details": "See {IERC721-setApprovalForAll}."
      },
      "supportsInterface(bytes4)": {
        "details": "See {IERC165-supportsInterface}."
      },
      "symbol()": {
        "details": "See {IERC721Metadata-symbol}."
      },
      "tokenURI(uint256)": {
        "details": "See {IERC721Metadata-tokenURI}."
      },
      "transferFrom(address,address,uint256)": {
        "details": "See {IERC721-transferFrom}."
      },
      "transferOwnership(address)": {
        "details": "Transfers ownership of the contract to a new account (`newOwner`). Can only be called by the current owner."
      }
    },
    "version": 1
  },
  "userdoc": {
    "kind": "user",
    "methods": {},
    "version": 1
  }
}